{
  "_format": "hh-sol-artifact-1",
  "contractName": "NFTMarketplace",
  "sourceName": "contracts/NFTMarketplace.sol",
  "abi": [
    {
      "inputs": [],
      "stateMutability": "nonpayable",
      "type": "constructor"
    },
    {
      "anonymous": false,
      "inputs": [
        {
          "indexed": true,
          "internalType": "address",
          "name": "owner",
          "type": "address"
        },
        {
          "indexed": true,
          "internalType": "address",
          "name": "approved",
          "type": "address"
        },
        {
          "indexed": true,
          "internalType": "uint256",
          "name": "tokenId",
          "type": "uint256"
        }
      ],
      "name": "Approval",
      "type": "event"
    },
    {
      "anonymous": false,
      "inputs": [
        {
          "indexed": true,
          "internalType": "address",
          "name": "owner",
          "type": "address"
        },
        {
          "indexed": true,
          "internalType": "address",
          "name": "operator",
          "type": "address"
        },
        {
          "indexed": false,
          "internalType": "bool",
          "name": "approved",
          "type": "bool"
        }
      ],
      "name": "ApprovalForAll",
      "type": "event"
    },
    {
      "anonymous": false,
      "inputs": [
        {
          "indexed": true,
          "internalType": "uint256",
          "name": "tokenId",
          "type": "uint256"
        },
        {
          "indexed": false,
          "internalType": "address",
          "name": "seller",
          "type": "address"
        },
        {
          "indexed": false,
          "internalType": "address",
          "name": "owner",
          "type": "address"
        },
        {
          "indexed": false,
          "internalType": "uint256",
          "name": "price",
          "type": "uint256"
        },
        {
          "indexed": false,
          "internalType": "bool",
          "name": "sold",
          "type": "bool"
        }
      ],
      "name": "MarketItemCreated",
      "type": "event"
    },
    {
      "anonymous": false,
      "inputs": [
        {
          "indexed": true,
          "internalType": "address",
          "name": "from",
          "type": "address"
        },
        {
          "indexed": true,
          "internalType": "address",
          "name": "to",
          "type": "address"
        },
        {
          "indexed": true,
          "internalType": "uint256",
          "name": "tokenId",
          "type": "uint256"
        }
      ],
      "name": "Transfer",
      "type": "event"
    },
    {
      "inputs": [
        {
          "internalType": "address",
          "name": "to",
          "type": "address"
        },
        {
          "internalType": "uint256",
          "name": "tokenId",
          "type": "uint256"
        }
      ],
      "name": "approve",
      "outputs": [],
      "stateMutability": "nonpayable",
      "type": "function"
    },
    {
      "inputs": [
        {
          "internalType": "address",
          "name": "owner",
          "type": "address"
        }
      ],
      "name": "balanceOf",
      "outputs": [
        {
          "internalType": "uint256",
          "name": "",
          "type": "uint256"
        }
      ],
      "stateMutability": "view",
      "type": "function"
    },
    {
      "inputs": [
        {
          "internalType": "uint256",
          "name": "tokenId",
          "type": "uint256"
        }
      ],
      "name": "createMarketSale",
      "outputs": [],
      "stateMutability": "payable",
      "type": "function"
    },
    {
      "inputs": [
        {
          "internalType": "string",
          "name": "tokenURI",
          "type": "string"
        },
        {
          "internalType": "uint256",
          "name": "price",
          "type": "uint256"
        }
      ],
      "name": "createToken",
      "outputs": [
        {
          "internalType": "uint256",
          "name": "",
          "type": "uint256"
        }
      ],
      "stateMutability": "payable",
      "type": "function"
    },
    {
      "inputs": [],
      "name": "fetchItemsListed",
      "outputs": [
        {
          "components": [
            {
              "internalType": "uint256",
              "name": "tokenId",
              "type": "uint256"
            },
            {
              "internalType": "address payable",
              "name": "seller",
              "type": "address"
            },
            {
              "internalType": "address payable",
              "name": "owner",
              "type": "address"
            },
            {
              "internalType": "uint256",
              "name": "price",
              "type": "uint256"
            },
            {
              "internalType": "bool",
              "name": "sold",
              "type": "bool"
            }
          ],
          "internalType": "struct NFTMarketplace.MarketItem[]",
          "name": "",
          "type": "tuple[]"
        }
      ],
      "stateMutability": "view",
      "type": "function"
    },
    {
      "inputs": [],
      "name": "fetchMarketItems",
      "outputs": [
        {
          "components": [
            {
              "internalType": "uint256",
              "name": "tokenId",
              "type": "uint256"
            },
            {
              "internalType": "address payable",
              "name": "seller",
              "type": "address"
            },
            {
              "internalType": "address payable",
              "name": "owner",
              "type": "address"
            },
            {
              "internalType": "uint256",
              "name": "price",
              "type": "uint256"
            },
            {
              "internalType": "bool",
              "name": "sold",
              "type": "bool"
            }
          ],
          "internalType": "struct NFTMarketplace.MarketItem[]",
          "name": "",
          "type": "tuple[]"
        }
      ],
      "stateMutability": "view",
      "type": "function"
    },
    {
      "inputs": [],
      "name": "fetchMyNFTs",
      "outputs": [
        {
          "components": [
            {
              "internalType": "uint256",
              "name": "tokenId",
              "type": "uint256"
            },
            {
              "internalType": "address payable",
              "name": "seller",
              "type": "address"
            },
            {
              "internalType": "address payable",
              "name": "owner",
              "type": "address"
            },
            {
              "internalType": "uint256",
              "name": "price",
              "type": "uint256"
            },
            {
              "internalType": "bool",
              "name": "sold",
              "type": "bool"
            }
          ],
          "internalType": "struct NFTMarketplace.MarketItem[]",
          "name": "",
          "type": "tuple[]"
        }
      ],
      "stateMutability": "view",
      "type": "function"
    },
    {
      "inputs": [
        {
          "internalType": "uint256",
          "name": "tokenId",
          "type": "uint256"
        }
      ],
      "name": "getApproved",
      "outputs": [
        {
          "internalType": "address",
          "name": "",
          "type": "address"
        }
      ],
      "stateMutability": "view",
      "type": "function"
    },
    {
      "inputs": [],
      "name": "getListingPrice",
      "outputs": [
        {
          "internalType": "uint256",
          "name": "",
          "type": "uint256"
        }
      ],
      "stateMutability": "view",
      "type": "function"
    },
    {
      "inputs": [
        {
          "internalType": "address",
          "name": "owner",
          "type": "address"
        },
        {
          "internalType": "address",
          "name": "operator",
          "type": "address"
        }
      ],
      "name": "isApprovedForAll",
      "outputs": [
        {
          "internalType": "bool",
          "name": "",
          "type": "bool"
        }
      ],
      "stateMutability": "view",
      "type": "function"
    },
    {
      "inputs": [],
      "name": "name",
      "outputs": [
        {
          "internalType": "string",
          "name": "",
          "type": "string"
        }
      ],
      "stateMutability": "view",
      "type": "function"
    },
    {
      "inputs": [
        {
          "internalType": "uint256",
          "name": "tokenId",
          "type": "uint256"
        }
      ],
      "name": "ownerOf",
      "outputs": [
        {
          "internalType": "address",
          "name": "",
          "type": "address"
        }
      ],
      "stateMutability": "view",
      "type": "function"
    },
    {
      "inputs": [
        {
          "internalType": "uint256",
          "name": "tokenId",
          "type": "uint256"
        },
        {
          "internalType": "uint256",
          "name": "price",
          "type": "uint256"
        }
      ],
      "name": "resellToken",
      "outputs": [],
      "stateMutability": "payable",
      "type": "function"
    },
    {
      "inputs": [
        {
          "internalType": "address",
          "name": "from",
          "type": "address"
        },
        {
          "internalType": "address",
          "name": "to",
          "type": "address"
        },
        {
          "internalType": "uint256",
          "name": "tokenId",
          "type": "uint256"
        }
      ],
      "name": "safeTransferFrom",
      "outputs": [],
      "stateMutability": "nonpayable",
      "type": "function"
    },
    {
      "inputs": [
        {
          "internalType": "address",
          "name": "from",
          "type": "address"
        },
        {
          "internalType": "address",
          "name": "to",
          "type": "address"
        },
        {
          "internalType": "uint256",
          "name": "tokenId",
          "type": "uint256"
        },
        {
          "internalType": "bytes",
          "name": "data",
          "type": "bytes"
        }
      ],
      "name": "safeTransferFrom",
      "outputs": [],
      "stateMutability": "nonpayable",
      "type": "function"
    },
    {
      "inputs": [
        {
          "internalType": "address",
          "name": "operator",
          "type": "address"
        },
        {
          "internalType": "bool",
          "name": "approved",
          "type": "bool"
        }
      ],
      "name": "setApprovalForAll",
      "outputs": [],
      "stateMutability": "nonpayable",
      "type": "function"
    },
    {
      "inputs": [
        {
          "internalType": "bytes4",
          "name": "interfaceId",
          "type": "bytes4"
        }
      ],
      "name": "supportsInterface",
      "outputs": [
        {
          "internalType": "bool",
          "name": "",
          "type": "bool"
        }
      ],
      "stateMutability": "view",
      "type": "function"
    },
    {
      "inputs": [],
      "name": "symbol",
      "outputs": [
        {
          "internalType": "string",
          "name": "",
          "type": "string"
        }
      ],
      "stateMutability": "view",
      "type": "function"
    },
    {
      "inputs": [
        {
          "internalType": "uint256",
          "name": "tokenId",
          "type": "uint256"
        }
      ],
      "name": "tokenURI",
      "outputs": [
        {
          "internalType": "string",
          "name": "",
          "type": "string"
        }
      ],
      "stateMutability": "view",
      "type": "function"
    },
    {
      "inputs": [
        {
          "internalType": "address",
          "name": "from",
          "type": "address"
        },
        {
          "internalType": "address",
          "name": "to",
          "type": "address"
        },
        {
          "internalType": "uint256",
          "name": "tokenId",
          "type": "uint256"
        }
      ],
      "name": "transferFrom",
      "outputs": [],
      "stateMutability": "nonpayable",
      "type": "function"
    },
    {
      "inputs": [
        {
          "internalType": "uint256",
          "name": "_listingPrice",
          "type": "uint256"
        }
      ],
      "name": "updateListingPrice",
      "outputs": [],
      "stateMutability": "payable",
      "type": "function"
    }
  ],
  "bytecode": "0x60806040526658d15e176280006009553480156200001c57600080fd5b506040518060400160405280601081526020017f4d657461766572736520546f6b656e73000000000000000000000000000000008152506040518060400160405280600481526020017f4d4554540000000000000000000000000000000000000000000000000000000081525081600090816200009a919062000370565b508060019081620000ac919062000370565b50505033600a60006101000a81548173ffffffffffffffffffffffffffffffffffffffff021916908373ffffffffffffffffffffffffffffffffffffffff16021790555062000457565b600081519050919050565b7f4e487b7100000000000000000000000000000000000000000000000000000000600052604160045260246000fd5b7f4e487b7100000000000000000000000000000000000000000000000000000000600052602260045260246000fd5b600060028204905060018216806200017857607f821691505b6020821081036200018e576200018d62000130565b5b50919050565b60008190508160005260206000209050919050565b60006020601f8301049050919050565b600082821b905092915050565b600060088302620001f87fffffffffffffffffffffffffffffffffffffffffffffffffffffffffffffffff82620001b9565b620002048683620001b9565b95508019841693508086168417925050509392505050565b6000819050919050565b6000819050919050565b6000620002516200024b62000245846200021c565b62000226565b6200021c565b9050919050565b6000819050919050565b6200026d8362000230565b620002856200027c8262000258565b848454620001c6565b825550505050565b600090565b6200029c6200028d565b620002a981848462000262565b505050565b5b81811015620002d157620002c560008262000292565b600181019050620002af565b5050565b601f8211156200032057620002ea8162000194565b620002f584620001a9565b8101602085101562000305578190505b6200031d6200031485620001a9565b830182620002ae565b50505b505050565b600082821c905092915050565b6000620003456000198460080262000325565b1980831691505092915050565b600062000360838362000332565b9150826002028217905092915050565b6200037b82620000f6565b67ffffffffffffffff81111562000397576200039662000101565b5b620003a382546200015f565b620003b0828285620002d5565b600060209050601f831160018114620003e85760008415620003d3578287015190505b620003df858262000352565b8655506200044f565b601f198416620003f88662000194565b60005b828110156200042257848901518255600182019150602085019450602081019050620003fb565b868310156200044257848901516200043e601f89168262000332565b8355505b6001600288020188555050505b505050505050565b61423980620004676000396000f3fe60806040526004361061012a5760003560e01c80636352211e116100ab578063ae677aa31161006f578063ae677aa3146103f9578063b88d4fde14610415578063be9af5361461043e578063c87b56dd1461045a578063e219fc7514610497578063e985e9c5146104b35761012a565b80636352211e146102fb57806370a082311461033857806372b3b6201461037557806395d89b41146103a5578063a22cb465146103d05761012a565b806312e85585116100f257806312e8558514610228578063202e37401461025357806323b872dd1461027e57806342842e0e146102a757806345f8fa80146102d05761012a565b806301ffc9a71461012f57806306fdde031461016c578063081812fc14610197578063095ea7b3146101d45780630f08efe0146101fd575b600080fd5b34801561013b57600080fd5b5061015660048036038101906101519190612afd565b6104f0565b6040516101639190612b45565b60405180910390f35b34801561017857600080fd5b506101816105d2565b60405161018e9190612bf0565b60405180910390f35b3480156101a357600080fd5b506101be60048036038101906101b99190612c48565b610664565b6040516101cb9190612cb6565b60405180910390f35b3480156101e057600080fd5b506101fb60048036038101906101f69190612cfd565b6106aa565b005b34801561020957600080fd5b506102126107c1565b60405161021f9190612e93565b60405180910390f35b34801561023457600080fd5b5061023d610a29565b60405161024a9190612ec4565b60405180910390f35b34801561025f57600080fd5b50610268610a33565b6040516102759190612e93565b60405180910390f35b34801561028a57600080fd5b506102a560048036038101906102a09190612edf565b610d1f565b005b3480156102b357600080fd5b506102ce60048036038101906102c99190612edf565b610d7f565b005b3480156102dc57600080fd5b506102e5610d9f565b6040516102f29190612e93565b60405180910390f35b34801561030757600080fd5b50610322600480360381019061031d9190612c48565b61108b565b60405161032f9190612cb6565b60405180910390f35b34801561034457600080fd5b5061035f600480360381019061035a9190612f32565b611111565b60405161036c9190612ec4565b60405180910390f35b61038f600480360381019061038a9190613094565b6111c8565b60405161039c9190612ec4565b60405180910390f35b3480156103b157600080fd5b506103ba61120a565b6040516103c79190612bf0565b60405180910390f35b3480156103dc57600080fd5b506103f760048036038101906103f2919061311c565b61129c565b005b610413600480360381019061040e9190612c48565b6112b2565b005b34801561042157600080fd5b5061043c600480360381019061043791906131fd565b61134c565b005b61045860048036038101906104539190612c48565b6113ae565b005b34801561046657600080fd5b50610481600480360381019061047c9190612c48565b6115ec565b60405161048e9190612bf0565b60405180910390f35b6104b160048036038101906104ac9190613280565b6116fe565b005b3480156104bf57600080fd5b506104da60048036038101906104d591906132c0565b6118f3565b6040516104e79190612b45565b60405180910390f35b60007f80ac58cd000000000000000000000000000000000000000000000000000000007bffffffffffffffffffffffffffffffffffffffffffffffffffffffff1916827bffffffffffffffffffffffffffffffffffffffffffffffffffffffff191614806105bb57507f5b5e139f000000000000000000000000000000000000000000000000000000007bffffffffffffffffffffffffffffffffffffffffffffffffffffffff1916827bffffffffffffffffffffffffffffffffffffffffffffffffffffffff1916145b806105cb57506105ca82611987565b5b9050919050565b6060600080546105e19061332f565b80601f016020809104026020016040519081016040528092919081815260200182805461060d9061332f565b801561065a5780601f1061062f5761010080835404028352916020019161065a565b820191906000526020600020905b81548152906001019060200180831161063d57829003601f168201915b5050505050905090565b600061066f826119f1565b6004600083815260200190815260200160002060009054906101000a900473ffffffffffffffffffffffffffffffffffffffff169050919050565b60006106b58261108b565b90508073ffffffffffffffffffffffffffffffffffffffff168373ffffffffffffffffffffffffffffffffffffffff1603610725576040517f08c379a000000000000000000000000000000000000000000000000000000000815260040161071c906133d2565b60405180910390fd5b8073ffffffffffffffffffffffffffffffffffffffff16610744611a3c565b73ffffffffffffffffffffffffffffffffffffffff16148061077357506107728161076d611a3c565b6118f3565b5b6107b2576040517f08c379a00000000000000000000000000000000000000000000000000000000081526004016107a990613464565b60405180910390fd5b6107bc8383611a44565b505050565b606060006107cf6007611afd565b905060006107dd6008611afd565b6107e76007611afd565b6107f191906134b3565b90506000808267ffffffffffffffff8111156108105761080f612f69565b5b60405190808252806020026020018201604052801561084957816020015b610836612a34565b81526020019060019003908161082e5790505b50905060005b84811015610a1e573073ffffffffffffffffffffffffffffffffffffffff16600b600060018461087f91906134e7565b815260200190815260200160002060020160009054906101000a900473ffffffffffffffffffffffffffffffffffffffff1673ffffffffffffffffffffffffffffffffffffffff1603610a0b5760006001826108db91906134e7565b90506000600b60008381526020019081526020016000209050806040518060a0016040529081600082015481526020016001820160009054906101000a900473ffffffffffffffffffffffffffffffffffffffff1673ffffffffffffffffffffffffffffffffffffffff1673ffffffffffffffffffffffffffffffffffffffff1681526020016002820160009054906101000a900473ffffffffffffffffffffffffffffffffffffffff1673ffffffffffffffffffffffffffffffffffffffff1673ffffffffffffffffffffffffffffffffffffffff168152602001600382015481526020016004820160009054906101000a900460ff1615151515815250508486815181106109ee576109ed61351b565b5b6020026020010181905250600185610a0691906134e7565b945050505b8080610a169061354a565b91505061084f565b508094505050505090565b6000600954905090565b60606000610a416007611afd565b905060008060005b83811015610ae9573373ffffffffffffffffffffffffffffffffffffffff16600b6000600184610a7991906134e7565b815260200190815260200160002060020160009054906101000a900473ffffffffffffffffffffffffffffffffffffffff1673ffffffffffffffffffffffffffffffffffffffff1603610ad657600183610ad391906134e7565b92505b8080610ae19061354a565b915050610a49565b5060008267ffffffffffffffff811115610b0657610b05612f69565b5b604051908082528060200260200182016040528015610b3f57816020015b610b2c612a34565b815260200190600190039081610b245790505b50905060005b84811015610d14573373ffffffffffffffffffffffffffffffffffffffff16600b6000600184610b7591906134e7565b815260200190815260200160002060020160009054906101000a900473ffffffffffffffffffffffffffffffffffffffff1673ffffffffffffffffffffffffffffffffffffffff1603610d01576000600182610bd191906134e7565b90506000600b60008381526020019081526020016000209050806040518060a0016040529081600082015481526020016001820160009054906101000a900473ffffffffffffffffffffffffffffffffffffffff1673ffffffffffffffffffffffffffffffffffffffff1673ffffffffffffffffffffffffffffffffffffffff1681526020016002820160009054906101000a900473ffffffffffffffffffffffffffffffffffffffff1673ffffffffffffffffffffffffffffffffffffffff1673ffffffffffffffffffffffffffffffffffffffff168152602001600382015481526020016004820160009054906101000a900460ff161515151581525050848681518110610ce457610ce361351b565b5b6020026020010181905250600185610cfc91906134e7565b945050505b8080610d0c9061354a565b915050610b45565b508094505050505090565b610d30610d2a611a3c565b82611b0b565b610d6f576040517f08c379a0000000000000000000000000000000000000000000000000000000008152600401610d6690613604565b60405180910390fd5b610d7a838383611ba0565b505050565b610d9a8383836040518060200160405280600081525061134c565b505050565b60606000610dad6007611afd565b905060008060005b83811015610e55573373ffffffffffffffffffffffffffffffffffffffff16600b6000600184610de591906134e7565b815260200190815260200160002060010160009054906101000a900473ffffffffffffffffffffffffffffffffffffffff1673ffffffffffffffffffffffffffffffffffffffff1603610e4257600183610e3f91906134e7565b92505b8080610e4d9061354a565b915050610db5565b5060008267ffffffffffffffff811115610e7257610e71612f69565b5b604051908082528060200260200182016040528015610eab57816020015b610e98612a34565b815260200190600190039081610e905790505b50905060005b84811015611080573373ffffffffffffffffffffffffffffffffffffffff16600b6000600184610ee191906134e7565b815260200190815260200160002060010160009054906101000a900473ffffffffffffffffffffffffffffffffffffffff1673ffffffffffffffffffffffffffffffffffffffff160361106d576000600182610f3d91906134e7565b90506000600b60008381526020019081526020016000209050806040518060a0016040529081600082015481526020016001820160009054906101000a900473ffffffffffffffffffffffffffffffffffffffff1673ffffffffffffffffffffffffffffffffffffffff1673ffffffffffffffffffffffffffffffffffffffff1681526020016002820160009054906101000a900473ffffffffffffffffffffffffffffffffffffffff1673ffffffffffffffffffffffffffffffffffffffff1673ffffffffffffffffffffffffffffffffffffffff168152602001600382015481526020016004820160009054906101000a900460ff1615151515815250508486815181106110505761104f61351b565b5b602002602001018190525060018561106891906134e7565b945050505b80806110789061354a565b915050610eb1565b508094505050505090565b60008061109783611e99565b9050600073ffffffffffffffffffffffffffffffffffffffff168173ffffffffffffffffffffffffffffffffffffffff1603611108576040517f08c379a00000000000000000000000000000000000000000000000000000000081526004016110ff90613670565b60405180910390fd5b80915050919050565b60008073ffffffffffffffffffffffffffffffffffffffff168273ffffffffffffffffffffffffffffffffffffffff1603611181576040517f08c379a000000000000000000000000000000000000000000000000000000000815260040161117890613702565b60405180910390fd5b600360008373ffffffffffffffffffffffffffffffffffffffff1673ffffffffffffffffffffffffffffffffffffffff168152602001908152602001600020549050919050565b60006111d46007611ed6565b60006111e06007611afd565b90506111ec3382611eec565b6111f68185612109565b6112008184612176565b8091505092915050565b6060600180546112199061332f565b80601f01602080910402602001604051908101604052809291908181526020018280546112459061332f565b80156112925780601f1061126757610100808354040283529160200191611292565b820191906000526020600020905b81548152906001019060200180831161127557829003601f168201915b5050505050905090565b6112ae6112a7611a3c565b8383612379565b5050565b3373ffffffffffffffffffffffffffffffffffffffff16600a60009054906101000a900473ffffffffffffffffffffffffffffffffffffffff1673ffffffffffffffffffffffffffffffffffffffff1614611342576040517f08c379a000000000000000000000000000000000000000000000000000000000815260040161133990613794565b60405180910390fd5b8060098190555050565b61135d611357611a3c565b83611b0b565b61139c576040517f08c379a000000000000000000000000000000000000000000000000000000000815260040161139390613604565b60405180910390fd5b6113a8848484846124e5565b50505050565b6000600b60008381526020019081526020016000206003015490506000600b600084815260200190815260200160002060010160009054906101000a900473ffffffffffffffffffffffffffffffffffffffff169050813414611446576040517f08c379a000000000000000000000000000000000000000000000000000000000815260040161143d90613826565b60405180910390fd5b33600b600085815260200190815260200160002060020160006101000a81548173ffffffffffffffffffffffffffffffffffffffff021916908373ffffffffffffffffffffffffffffffffffffffff1602179055506001600b600085815260200190815260200160002060040160006101000a81548160ff0219169083151502179055506000600b600085815260200190815260200160002060010160006101000a81548173ffffffffffffffffffffffffffffffffffffffff021916908373ffffffffffffffffffffffffffffffffffffffff16021790555061152a6008611ed6565b611535303385611ba0565b600a60009054906101000a900473ffffffffffffffffffffffffffffffffffffffff1673ffffffffffffffffffffffffffffffffffffffff166108fc6009549081150290604051600060405180830381858888f1935050505015801561159f573d6000803e3d6000fd5b508073ffffffffffffffffffffffffffffffffffffffff166108fc349081150290604051600060405180830381858888f193505050501580156115e6573d6000803e3d6000fd5b50505050565b60606115f7826119f1565b60006006600084815260200190815260200160002080546116179061332f565b80601f01602080910402602001604051908101604052809291908181526020018280546116439061332f565b80156116905780601f1061166557610100808354040283529160200191611690565b820191906000526020600020905b81548152906001019060200180831161167357829003601f168201915b5050505050905060006116a1612541565b905060008151036116b65781925050506116f9565b6000825111156116eb5780826040516020016116d3929190613882565b604051602081830303815290604052925050506116f9565b6116f484612558565b925050505b919050565b3373ffffffffffffffffffffffffffffffffffffffff16600b600084815260200190815260200160002060020160009054906101000a900473ffffffffffffffffffffffffffffffffffffffff1673ffffffffffffffffffffffffffffffffffffffff16146117a2576040517f08c379a000000000000000000000000000000000000000000000000000000000815260040161179990613918565b60405180910390fd5b60095434146117e6576040517f08c379a00000000000000000000000000000000000000000000000000000000081526004016117dd906139aa565b60405180910390fd5b6000600b600084815260200190815260200160002060040160006101000a81548160ff02191690831515021790555080600b60008481526020019081526020016000206003018190555033600b600084815260200190815260200160002060010160006101000a81548173ffffffffffffffffffffffffffffffffffffffff021916908373ffffffffffffffffffffffffffffffffffffffff16021790555030600b600084815260200190815260200160002060020160006101000a81548173ffffffffffffffffffffffffffffffffffffffff021916908373ffffffffffffffffffffffffffffffffffffffff1602179055506118e460086125c0565b6118ef333084611ba0565b5050565b6000600560008473ffffffffffffffffffffffffffffffffffffffff1673ffffffffffffffffffffffffffffffffffffffff16815260200190815260200160002060008373ffffffffffffffffffffffffffffffffffffffff1673ffffffffffffffffffffffffffffffffffffffff16815260200190815260200160002060009054906101000a900460ff16905092915050565b60007f01ffc9a7000000000000000000000000000000000000000000000000000000007bffffffffffffffffffffffffffffffffffffffffffffffffffffffff1916827bffffffffffffffffffffffffffffffffffffffffffffffffffffffff1916149050919050565b6119fa8161261c565b611a39576040517f08c379a0000000000000000000000000000000000000000000000000000000008152600401611a3090613670565b60405180910390fd5b50565b600033905090565b816004600083815260200190815260200160002060006101000a81548173ffffffffffffffffffffffffffffffffffffffff021916908373ffffffffffffffffffffffffffffffffffffffff160217905550808273ffffffffffffffffffffffffffffffffffffffff16611ab78361108b565b73ffffffffffffffffffffffffffffffffffffffff167f8c5be1e5ebec7d5bd14f71427d1e84f3dd0314c0f7b2291e5b200ac8c7c3b92560405160405180910390a45050565b600081600001549050919050565b600080611b178361108b565b90508073ffffffffffffffffffffffffffffffffffffffff168473ffffffffffffffffffffffffffffffffffffffff161480611b595750611b5881856118f3565b5b80611b9757508373ffffffffffffffffffffffffffffffffffffffff16611b7f84610664565b73ffffffffffffffffffffffffffffffffffffffff16145b91505092915050565b8273ffffffffffffffffffffffffffffffffffffffff16611bc08261108b565b73ffffffffffffffffffffffffffffffffffffffff1614611c16576040517f08c379a0000000000000000000000000000000000000000000000000000000008152600401611c0d90613a3c565b60405180910390fd5b600073ffffffffffffffffffffffffffffffffffffffff168273ffffffffffffffffffffffffffffffffffffffff1603611c85576040517f08c379a0000000000000000000000000000000000000000000000000000000008152600401611c7c90613ace565b60405180910390fd5b611c92838383600161265d565b8273ffffffffffffffffffffffffffffffffffffffff16611cb28261108b565b73ffffffffffffffffffffffffffffffffffffffff1614611d08576040517f08c379a0000000000000000000000000000000000000000000000000000000008152600401611cff90613a3c565b60405180910390fd5b6004600082815260200190815260200160002060006101000a81549073ffffffffffffffffffffffffffffffffffffffff02191690556001600360008573ffffffffffffffffffffffffffffffffffffffff1673ffffffffffffffffffffffffffffffffffffffff168152602001908152602001600020600082825403925050819055506001600360008473ffffffffffffffffffffffffffffffffffffffff1673ffffffffffffffffffffffffffffffffffffffff16815260200190815260200160002060008282540192505081905550816002600083815260200190815260200160002060006101000a81548173ffffffffffffffffffffffffffffffffffffffff021916908373ffffffffffffffffffffffffffffffffffffffff160217905550808273ffffffffffffffffffffffffffffffffffffffff168473ffffffffffffffffffffffffffffffffffffffff167fddf252ad1be2c89b69c2b068fc378daa952ba7f163c4a11628f55a4df523b3ef60405160405180910390a4611e948383836001612663565b505050565b60006002600083815260200190815260200160002060009054906101000a900473ffffffffffffffffffffffffffffffffffffffff169050919050565b6001816000016000828254019250508190555050565b600073ffffffffffffffffffffffffffffffffffffffff168273ffffffffffffffffffffffffffffffffffffffff1603611f5b576040517f08c379a0000000000000000000000000000000000000000000000000000000008152600401611f5290613b3a565b60405180910390fd5b611f648161261c565b15611fa4576040517f08c379a0000000000000000000000000000000000000000000000000000000008152600401611f9b90613ba6565b60405180910390fd5b611fb260008383600161265d565b611fbb8161261c565b15611ffb576040517f08c379a0000000000000000000000000000000000000000000000000000000008152600401611ff290613ba6565b60405180910390fd5b6001600360008473ffffffffffffffffffffffffffffffffffffffff1673ffffffffffffffffffffffffffffffffffffffff16815260200190815260200160002060008282540192505081905550816002600083815260200190815260200160002060006101000a81548173ffffffffffffffffffffffffffffffffffffffff021916908373ffffffffffffffffffffffffffffffffffffffff160217905550808273ffffffffffffffffffffffffffffffffffffffff16600073ffffffffffffffffffffffffffffffffffffffff167fddf252ad1be2c89b69c2b068fc378daa952ba7f163c4a11628f55a4df523b3ef60405160405180910390a4612105600083836001612663565b5050565b6121128261261c565b612151576040517f08c379a000000000000000000000000000000000000000000000000000000000815260040161214890613c38565b60405180910390fd5b806006600084815260200190815260200160002090816121719190613e04565b505050565b600081116121b9576040517f08c379a00000000000000000000000000000000000000000000000000000000081526004016121b090613f22565b60405180910390fd5b60095434146121fd576040517f08c379a00000000000000000000000000000000000000000000000000000000081526004016121f4906139aa565b60405180910390fd5b6040518060a001604052808381526020013373ffffffffffffffffffffffffffffffffffffffff1681526020013073ffffffffffffffffffffffffffffffffffffffff16815260200182815260200160001515815250600b60008481526020019081526020016000206000820151816000015560208201518160010160006101000a81548173ffffffffffffffffffffffffffffffffffffffff021916908373ffffffffffffffffffffffffffffffffffffffff16021790555060408201518160020160006101000a81548173ffffffffffffffffffffffffffffffffffffffff021916908373ffffffffffffffffffffffffffffffffffffffff1602179055506060820151816003015560808201518160040160006101000a81548160ff021916908315150217905550905050612336333084611ba0565b817fb640004f1d14576d0c209e240cad0410e0d8c0c33a09375861fbadae2588a98d333084600060405161236d9493929190613f42565b60405180910390a25050565b8173ffffffffffffffffffffffffffffffffffffffff168373ffffffffffffffffffffffffffffffffffffffff16036123e7576040517f08c379a00000000000000000000000000000000000000000000000000000000081526004016123de90613fd3565b60405180910390fd5b80600560008573ffffffffffffffffffffffffffffffffffffffff1673ffffffffffffffffffffffffffffffffffffffff16815260200190815260200160002060008473ffffffffffffffffffffffffffffffffffffffff1673ffffffffffffffffffffffffffffffffffffffff16815260200190815260200160002060006101000a81548160ff0219169083151502179055508173ffffffffffffffffffffffffffffffffffffffff168373ffffffffffffffffffffffffffffffffffffffff167f17307eab39ab6107e8899845ad3d59bd9653f200f220920489ca2b5937696c31836040516124d89190612b45565b60405180910390a3505050565b6124f0848484611ba0565b6124fc84848484612669565b61253b576040517f08c379a000000000000000000000000000000000000000000000000000000000815260040161253290614065565b60405180910390fd5b50505050565b606060405180602001604052806000815250905090565b6060612563826119f1565b600061256d612541565b9050600081511161258d57604051806020016040528060008152506125b8565b80612597846127f0565b6040516020016125a8929190613882565b6040516020818303038152906040525b915050919050565b6000816000015490506000811161260c576040517f08c379a0000000000000000000000000000000000000000000000000000000008152600401612603906140d1565b60405180910390fd5b6001810382600001819055505050565b60008073ffffffffffffffffffffffffffffffffffffffff1661263e83611e99565b73ffffffffffffffffffffffffffffffffffffffff1614159050919050565b50505050565b50505050565b600061268a8473ffffffffffffffffffffffffffffffffffffffff166128be565b156127e3578373ffffffffffffffffffffffffffffffffffffffff1663150b7a026126b3611a3c565b8786866040518563ffffffff1660e01b81526004016126d59493929190614146565b6020604051808303816000875af192505050801561271157506040513d601f19601f8201168201806040525081019061270e91906141a7565b60015b612793573d8060008114612741576040519150601f19603f3d011682016040523d82523d6000602084013e612746565b606091505b50600081510361278b576040517f08c379a000000000000000000000000000000000000000000000000000000000815260040161278290614065565b60405180910390fd5b805181602001fd5b63150b7a0260e01b7bffffffffffffffffffffffffffffffffffffffffffffffffffffffff1916817bffffffffffffffffffffffffffffffffffffffffffffffffffffffff1916149150506127e8565b600190505b949350505050565b6060600060016127ff846128e1565b01905060008167ffffffffffffffff81111561281e5761281d612f69565b5b6040519080825280601f01601f1916602001820160405280156128505781602001600182028036833780820191505090505b509050600082602001820190505b6001156128b3578080600190039150507f3031323334353637383961626364656600000000000000000000000000000000600a86061a8153600a85816128a7576128a66141d4565b5b0494506000850361285e575b819350505050919050565b6000808273ffffffffffffffffffffffffffffffffffffffff163b119050919050565b600080600090507a184f03e93ff9f4daa797ed6e38ed64bf6a1f010000000000000000831061293f577a184f03e93ff9f4daa797ed6e38ed64bf6a1f0100000000000000008381612935576129346141d4565b5b0492506040810190505b6d04ee2d6d415b85acef8100000000831061297c576d04ee2d6d415b85acef81000000008381612972576129716141d4565b5b0492506020810190505b662386f26fc1000083106129ab57662386f26fc1000083816129a1576129a06141d4565b5b0492506010810190505b6305f5e10083106129d4576305f5e10083816129ca576129c96141d4565b5b0492506008810190505b61271083106129f95761271083816129ef576129ee6141d4565b5b0492506004810190505b60648310612a1c5760648381612a1257612a116141d4565b5b0492506002810190505b600a8310612a2b576001810190505b80915050919050565b6040518060a0016040528060008152602001600073ffffffffffffffffffffffffffffffffffffffff168152602001600073ffffffffffffffffffffffffffffffffffffffff168152602001600081526020016000151581525090565b6000604051905090565b600080fd5b600080fd5b60007fffffffff0000000000000000000000000000000000000000000000000000000082169050919050565b612ada81612aa5565b8114612ae557600080fd5b50565b600081359050612af781612ad1565b92915050565b600060208284031215612b1357612b12612a9b565b5b6000612b2184828501612ae8565b91505092915050565b60008115159050919050565b612b3f81612b2a565b82525050565b6000602082019050612b5a6000830184612b36565b92915050565b600081519050919050565b600082825260208201905092915050565b60005b83811015612b9a578082015181840152602081019050612b7f565b60008484015250505050565b6000601f19601f8301169050919050565b6000612bc282612b60565b612bcc8185612b6b565b9350612bdc818560208601612b7c565b612be581612ba6565b840191505092915050565b60006020820190508181036000830152612c0a8184612bb7565b905092915050565b6000819050919050565b612c2581612c12565b8114612c3057600080fd5b50565b600081359050612c4281612c1c565b92915050565b600060208284031215612c5e57612c5d612a9b565b5b6000612c6c84828501612c33565b91505092915050565b600073ffffffffffffffffffffffffffffffffffffffff82169050919050565b6000612ca082612c75565b9050919050565b612cb081612c95565b82525050565b6000602082019050612ccb6000830184612ca7565b92915050565b612cda81612c95565b8114612ce557600080fd5b50565b600081359050612cf781612cd1565b92915050565b60008060408385031215612d1457612d13612a9b565b5b6000612d2285828601612ce8565b9250506020612d3385828601612c33565b9150509250929050565b600081519050919050565b600082825260208201905092915050565b6000819050602082019050919050565b612d7281612c12565b82525050565b6000612d8382612c75565b9050919050565b612d9381612d78565b82525050565b612da281612b2a565b82525050565b60a082016000820151612dbe6000850182612d69565b506020820151612dd16020850182612d8a565b506040820151612de46040850182612d8a565b506060820151612df76060850182612d69565b506080820151612e0a6080850182612d99565b50505050565b6000612e1c8383612da8565b60a08301905092915050565b6000602082019050919050565b6000612e4082612d3d565b612e4a8185612d48565b9350612e5583612d59565b8060005b83811015612e86578151612e6d8882612e10565b9750612e7883612e28565b925050600181019050612e59565b5085935050505092915050565b60006020820190508181036000830152612ead8184612e35565b905092915050565b612ebe81612c12565b82525050565b6000602082019050612ed96000830184612eb5565b92915050565b600080600060608486031215612ef857612ef7612a9b565b5b6000612f0686828701612ce8565b9350506020612f1786828701612ce8565b9250506040612f2886828701612c33565b9150509250925092565b600060208284031215612f4857612f47612a9b565b5b6000612f5684828501612ce8565b91505092915050565b600080fd5b600080fd5b7f4e487b7100000000000000000000000000000000000000000000000000000000600052604160045260246000fd5b612fa182612ba6565b810181811067ffffffffffffffff82111715612fc057612fbf612f69565b5b80604052505050565b6000612fd3612a91565b9050612fdf8282612f98565b919050565b600067ffffffffffffffff821115612fff57612ffe612f69565b5b61300882612ba6565b9050602081019050919050565b82818337600083830152505050565b600061303761303284612fe4565b612fc9565b90508281526020810184848401111561305357613052612f64565b5b61305e848285613015565b509392505050565b600082601f83011261307b5761307a612f5f565b5b813561308b848260208601613024565b91505092915050565b600080604083850312156130ab576130aa612a9b565b5b600083013567ffffffffffffffff8111156130c9576130c8612aa0565b5b6130d585828601613066565b92505060206130e685828601612c33565b9150509250929050565b6130f981612b2a565b811461310457600080fd5b50565b600081359050613116816130f0565b92915050565b6000806040838503121561313357613132612a9b565b5b600061314185828601612ce8565b925050602061315285828601613107565b9150509250929050565b600067ffffffffffffffff82111561317757613176612f69565b5b61318082612ba6565b9050602081019050919050565b60006131a061319b8461315c565b612fc9565b9050828152602081018484840111156131bc576131bb612f64565b5b6131c7848285613015565b509392505050565b600082601f8301126131e4576131e3612f5f565b5b81356131f484826020860161318d565b91505092915050565b6000806000806080858703121561321757613216612a9b565b5b600061322587828801612ce8565b945050602061323687828801612ce8565b935050604061324787828801612c33565b925050606085013567ffffffffffffffff81111561326857613267612aa0565b5b613274878288016131cf565b91505092959194509250565b6000806040838503121561329757613296612a9b565b5b60006132a585828601612c33565b92505060206132b685828601612c33565b9150509250929050565b600080604083850312156132d7576132d6612a9b565b5b60006132e585828601612ce8565b92505060206132f685828601612ce8565b9150509250929050565b7f4e487b7100000000000000000000000000000000000000000000000000000000600052602260045260246000fd5b6000600282049050600182168061334757607f821691505b60208210810361335a57613359613300565b5b50919050565b7f4552433732313a20617070726f76616c20746f2063757272656e74206f776e6560008201527f7200000000000000000000000000000000000000000000000000000000000000602082015250565b60006133bc602183612b6b565b91506133c782613360565b604082019050919050565b600060208201905081810360008301526133eb816133af565b9050919050565b7f4552433732313a20617070726f76652063616c6c6572206973206e6f7420746f60008201527f6b656e206f776e6572206f7220617070726f76656420666f7220616c6c000000602082015250565b600061344e603d83612b6b565b9150613459826133f2565b604082019050919050565b6000602082019050818103600083015261347d81613441565b9050919050565b7f4e487b7100000000000000000000000000000000000000000000000000000000600052601160045260246000fd5b60006134be82612c12565b91506134c983612c12565b92508282039050818111156134e1576134e0613484565b5b92915050565b60006134f282612c12565b91506134fd83612c12565b925082820190508082111561351557613514613484565b5b92915050565b7f4e487b7100000000000000000000000000000000000000000000000000000000600052603260045260246000fd5b600061355582612c12565b91507fffffffffffffffffffffffffffffffffffffffffffffffffffffffffffffffff820361358757613586613484565b5b600182019050919050565b7f4552433732313a2063616c6c6572206973206e6f7420746f6b656e206f776e6560008201527f72206f7220617070726f76656400000000000000000000000000000000000000602082015250565b60006135ee602d83612b6b565b91506135f982613592565b604082019050919050565b6000602082019050818103600083015261361d816135e1565b9050919050565b7f4552433732313a20696e76616c696420746f6b656e2049440000000000000000600082015250565b600061365a601883612b6b565b915061366582613624565b602082019050919050565b600060208201905081810360008301526136898161364d565b9050919050565b7f4552433732313a2061646472657373207a65726f206973206e6f74206120766160008201527f6c6964206f776e65720000000000000000000000000000000000000000000000602082015250565b60006136ec602983612b6b565b91506136f782613690565b604082019050919050565b6000602082019050818103600083015261371b816136df565b9050919050565b7f4f6e6c79206d61726b6574706c616365206f776e65722063616e20757064617460008201527f65206c697374696e672070726963652e00000000000000000000000000000000602082015250565b600061377e603083612b6b565b915061378982613722565b604082019050919050565b600060208201905081810360008301526137ad81613771565b9050919050565b7f506c65617365207375626d6974207468652061736b696e67207072696365206960008201527f6e206f7264657220746f20636f6d706c65746520746865207075726368617365602082015250565b6000613810604083612b6b565b915061381b826137b4565b604082019050919050565b6000602082019050818103600083015261383f81613803565b9050919050565b600081905092915050565b600061385c82612b60565b6138668185613846565b9350613876818560208601612b7c565b80840191505092915050565b600061388e8285613851565b915061389a8284613851565b91508190509392505050565b7f4f6e6c79206974656d206f776e65722063616e20706572666f726d207468697360008201527f206f7065726174696f6e00000000000000000000000000000000000000000000602082015250565b6000613902602a83612b6b565b915061390d826138a6565b604082019050919050565b60006020820190508181036000830152613931816138f5565b9050919050565b7f5072696365206d75737420626520657175616c20746f206c697374696e67207060008201527f7269636500000000000000000000000000000000000000000000000000000000602082015250565b6000613994602483612b6b565b915061399f82613938565b604082019050919050565b600060208201905081810360008301526139c381613987565b9050919050565b7f4552433732313a207472616e736665722066726f6d20696e636f72726563742060008201527f6f776e6572000000000000000000000000000000000000000000000000000000602082015250565b6000613a26602583612b6b565b9150613a31826139ca565b604082019050919050565b60006020820190508181036000830152613a5581613a19565b9050919050565b7f4552433732313a207472616e7366657220746f20746865207a65726f2061646460008201527f7265737300000000000000000000000000000000000000000000000000000000602082015250565b6000613ab8602483612b6b565b9150613ac382613a5c565b604082019050919050565b60006020820190508181036000830152613ae781613aab565b9050919050565b7f4552433732313a206d696e7420746f20746865207a65726f2061646472657373600082015250565b6000613b24602083612b6b565b9150613b2f82613aee565b602082019050919050565b60006020820190508181036000830152613b5381613b17565b9050919050565b7f4552433732313a20746f6b656e20616c7265616479206d696e74656400000000600082015250565b6000613b90601c83612b6b565b9150613b9b82613b5a565b602082019050919050565b60006020820190508181036000830152613bbf81613b83565b9050919050565b7f45524337323155524953746f726167653a2055524920736574206f66206e6f6e60008201527f6578697374656e7420746f6b656e000000000000000000000000000000000000602082015250565b6000613c22602e83612b6b565b9150613c2d82613bc6565b604082019050919050565b60006020820190508181036000830152613c5181613c15565b9050919050565b60008190508160005260206000209050919050565b60006020601f8301049050919050565b600082821b905092915050565b600060088302613cba7fffffffffffffffffffffffffffffffffffffffffffffffffffffffffffffffff82613c7d565b613cc48683613c7d565b95508019841693508086168417925050509392505050565b6000819050919050565b6000613d01613cfc613cf784612c12565b613cdc565b612c12565b9050919050565b6000819050919050565b613d1b83613ce6565b613d2f613d2782613d08565b848454613c8a565b825550505050565b600090565b613d44613d37565b613d4f818484613d12565b505050565b5b81811015613d7357613d68600082613d3c565b600181019050613d55565b5050565b601f821115613db857613d8981613c58565b613d9284613c6d565b81016020851015613da1578190505b613db5613dad85613c6d565b830182613d54565b50505b505050565b600082821c905092915050565b6000613ddb60001984600802613dbd565b1980831691505092915050565b6000613df48383613dca565b9150826002028217905092915050565b613e0d82612b60565b67ffffffffffffffff811115613e2657613e25612f69565b5b613e30825461332f565b613e3b828285613d77565b600060209050601f831160018114613e6e5760008415613e5c578287015190505b613e668582613de8565b865550613ece565b601f198416613e7c86613c58565b60005b82811015613ea457848901518255600182019150602085019450602081019050613e7f565b86831015613ec15784890151613ebd601f891682613dca565b8355505b6001600288020188555050505b505050505050565b7f5072696365206d757374206265206174206c6561737420312077656900000000600082015250565b6000613f0c601c83612b6b565b9150613f1782613ed6565b602082019050919050565b60006020820190508181036000830152613f3b81613eff565b9050919050565b6000608082019050613f576000830187612ca7565b613f646020830186612ca7565b613f716040830185612eb5565b613f7e6060830184612b36565b95945050505050565b7f4552433732313a20617070726f766520746f2063616c6c657200000000000000600082015250565b6000613fbd601983612b6b565b9150613fc882613f87565b602082019050919050565b60006020820190508181036000830152613fec81613fb0565b9050919050565b7f4552433732313a207472616e7366657220746f206e6f6e20455243373231526560008201527f63656976657220696d706c656d656e7465720000000000000000000000000000602082015250565b600061404f603283612b6b565b915061405a82613ff3565b604082019050919050565b6000602082019050818103600083015261407e81614042565b9050919050565b7f436f756e7465723a2064656372656d656e74206f766572666c6f770000000000600082015250565b60006140bb601b83612b6b565b91506140c682614085565b602082019050919050565b600060208201905081810360008301526140ea816140ae565b9050919050565b600081519050919050565b600082825260208201905092915050565b6000614118826140f1565b61412281856140fc565b9350614132818560208601612b7c565b61413b81612ba6565b840191505092915050565b600060808201905061415b6000830187612ca7565b6141686020830186612ca7565b6141756040830185612eb5565b8181036060830152614187818461410d565b905095945050505050565b6000815190506141a181612ad1565b92915050565b6000602082840312156141bd576141bc612a9b565b5b60006141cb84828501614192565b91505092915050565b7f4e487b7100000000000000000000000000000000000000000000000000000000600052601260045260246000fdfea2646970667358221220f925e784c4e8e35d5dc8b34ab29fa12793ed9f8f8d1f44980d36fd9ba55a592e64736f6c63430008120033",
  "linkReferences": {},
  "deployedLinkReferences": {}
}